:03000000020003F8
:0C000300787FE4F6D8FD75812102004AE8
:1000F700021E000002200000010800060901020498
:100107000810200A143F065B4F666D7D077F6F0559
:060117000F767938383F35
:0900CE002FF8E6F5807F0A7E00A0
:1000D700E4FDFCC3ED9FEC9E5015E4FBFA0BBB005F
:0F00E700010AEB64784A70F50DBD00010C80E44E
:0100F60022E7
:10011E00E4F51EF51FAF1F74092FF8E6F4F5A07471
:10012E00151200CE051FE51F7002051EC39406E5CD
:06013E001E940040E022C7
:10014400E4F520F521AF2174092FF8E6F4F5A07445
:100154000F1200CE0521E52170020520C39405E5A8
:0601640020940040E0229F
:10008F0080332097287F147E001200D7E508700474
:10009F007F0180027F008F08209712E50814600807
:1000AF000470F512011E80F012014480EBE5081474
:0F00BF0060080470CD12011E80C812014480C376
:10000F0002008FE493A3F8E493A34003F68001F278
:10001F0008DFF48029E493A3F85407240CC8C333F2
:10002F00C4540F4420C8834004F456800146F6DFC1
:10003F00E4800B01020408102040809000F7E47E5A
:10004F00019360BCA3FF543F30E509541FFEE493B6
:10005F00A360010ECF54C025E060A840B8E493A37D
:10006F00FAE493A3F8E493A3C8C582C8CAC583CAA8
:10007F00F0A3C8C582C8CAC583CADFE9DEE780BE60
:01011D0000E1
:00000001FF
